:1000000045C000004BC0000049C0000047C00000D0
:1000100045C0000043C0000041C000003FC00000D8
:100020003DC000003BC0000039C0000037C00000E8
:1000300035C0000033C0000031C000002FC00000F8
:100040002DC000002BC0000029C0000027C0000008
:1000500025C0000023C0000021C000001FC0000018
:100060001DC000001BC0000019C0000017C0000028
:1000700015C0000013C0000011C000000FC0000038
:100080000DC000000BC0000009C0000011241FBEFD
:10009000CFEFD0E1DEBFCDBF11D06CC0B1CFC89BD8
:1000A0000AC08FE39CE90197F1F700C0000089B313
:1000B000817090E0089580E090E00895CF93DF9301
:1000C00000D01F92CDB7DEB788E889838BEE8A8394
:1000D0008CE48B839FEF91BBD09894BB82BB81E073
:1000E00085BBF12C00E010E0EE24E3940F2EF3E04A
:1000F000CF2ED12CF02DD3DF282F813049F4F110F1
:1001000007C0E5BAC8010196B6010DD08C0101C047
:1001100015BAE1E0F0E0EC0FFD1FE00FF11F908158
:1001200092BBF22EE8CF97FB072E16F4009406D070
:1001300077FD08D00BD007FC05D03EF49095819553
:100140009F4F0895709561957F4F0895AA1BBB1B23
:1001500051E107C0AA1FBB1FA617B70710F0A61BC7
:10016000B70B881F991F5A95A9F780959095BC01E8
:08017000CD010895F894FFCFC2
:00000001FF
