:1000000045C0000060C000005EC000005CC0000091
:100010005AC0000058C0000056C0000054C0000084
:1000200052C0000050C000004EC000004CC0000094
:100030004AC0000048C0000046C0000044C00000A4
:1000400042C0000040C000003EC000003CC00000B4
:100050003AC0000038C0000036C0000034C00000C4
:1000600032C0000030C000002EC000002CC00000D4
:100070002AC0000028C0000026C0000024C00000E4
:1000800022C0000020C000001EC0000011241FBEBE
:10009000CFEFD0E1DEBFCDBF11E0A0E0B1E0E4EBF7
:1000A000F1E000E00BBF02C007900D92A035B10750
:1000B000D9F721E0A0E5B1E001C01D92A035B2075B
:1000C000E1F770D075C09CCFDA9A8FE99FE0019775
:1000D000F1F700C00000DA988FE99FE00197F1F78F
:1000E00000C000000895D89A85BBEEDF8FE39FE142
:1000F0000197F1F700C000000895D89885BBE4DFB0
:100100008FE39FE10197F1F700C00000089581E0BF
:10011000F4DF8FE39FE10197F1F700C0000008953D
:100120002FEF80E792E0215080409040E1F700C03F
:1001300000008FEF84BB15BA8AB387608ABBD99859
:1001400088E3DBDF8CE0D9DFE2DF86E0D6CF0895FD
:100150000F931F93CF93FC018081882351F08F016F
:10016000C0E0C1DFCF5FF801EC0FF11D808181118C
:10017000F8CFCF911F910F91089581706F7090E427
:10018000899F600D1124862F8058B7CF0895C8DF4E
:1001900080E091E0DDDF60E081E0EFDF80E191E091
:1001A000D7CF0895F4DF8FEF81BB80E282BBFFCF12
:0401B000F894FFCFF1
:1001B40052454D4F544520434F4E54524F4C21000D
:1001C40052454144592E2E2E0053544F502E2E2E5C
:1001D4002E2E2E00464F52574152442E2E2E0042B0
:1001E40041434B2E2E2E2E2E2E004C4546542E2EA1
:1001F4002E2E2E2E0052494748542E2E2E2E2E00DF
:00000001FF
