S0170000303133305F6373686172705F484D492E737265632C
S113000045C0000054C0000051C000004FC00000B3
S11300104DC000004BC0000049C0000047C00000B4
S113002045C0000043C0000041C000003FC00000C4
S11300303DC000003BC0000039C0000037C00000D4
S113004035C0000033C0000031C000002FC00000E4
S11300502DC000002BC0000029C0000027C00000F4
S113006025C0000023C0000021C000001FC0000004
S11300701DC000001BC0000019C0000017C0000014
S113008015C0000013C0000011C0000011241FBEE1
S1130090CFEFD0E1DEBFCDBF21E0A0E0B1E001C0F1
S11300A01D92A230B207E1F72FD03BC0A9CF1F9217
S11300B00F920FB60F9211248F939F93809100019A
S11300C090910101019681709078992324F401970D
S11300D08E6F9F6F019690930101809300019F9111
S11300E08F910F900FBE0F901F901895D09A8898FB
S11300F0909A089589B7816089BFEAE6F0E080812B
S11301008260808378940895F1DFF4DF21E08091A8
S1130110000190910101019711F42BBBF8CF1BBA98
S1090120F6CFF894FFCFB6
S9030000FC
