:1000000045C0000058C0000056C0000054C00000A9
:1000100052C0000050C000004EC000004CC00000A4
:100020004AC0000048C0000046C0000044C00000B4
:1000300042C0000040C000003EC000003CC00000C4
:100040003AC0000038C0000036C0000034C00000D4
:1000500032C0000030C000002EC000002CC00000E4
:100060002AC0000028C0000026C0000024C00000F4
:1000700022C0000020C000001EC000001CC0000004
:100080001AC0000018C0000016C0000011241FBED6
:10009000CFEFD0E1DEBFCDBF11E0A0E0B1E0E2E8FC
:1000A000F1E000E00BBF02C007900D92AC31B10748
:1000B000D9F75BD064C0A4CFDA9A8FE99FE00197AB
:1000C000F1F700C00000DA988FE99FE00197F1F79F
:1000D00000C000000895D89A85BBEEDF8FE39FE152
:1000E0000197F1F700C000000895D89885BBE4DFC0
:1000F0008FE39FE10197F1F700C00000089581E0D0
:10010000F4DF8FE39FE10197F1F700C0000008954D
:100110002FEF80E792E0215080409040E1F700C04F
:1001200000008FEF84BB15BA8AB387608ABBD99869
:1001300088E3DBDF8CE0D9DFE2DF86E0D6CF08950D
:100140000F931F93CF93FC018081882351F08F017F
:10015000C0E0C1DFCF5FF801EC0FF11D808181119C
:10016000F8CFCF911F910F910895D2DF80E091E0F9
:10017000E7DF80ECBADF8DE091E0E2DFFFCFF894BB
:02018000FFCFAF
:1001820048656C6C6F20576F726C64210052454D4C
:0C0192004F544520434F4E54524F4C0038
:00000001FF
